:100000000C9446000C9465000C9465000C946500FB
:100010000C9465000C9465000C9465000C946500CC
:100020000C9465000C9465000C9465000C946500BC
:100030000C9465000C94DE000C9465000C94650033
:100040000C9465000C9465000C9465000C9465009C
:100050000C9465000C9465000C9465000C9465008C
:100060000C9465000C9465000C9465000C9465007C
:100070000C9465000C9465000C9465000C9465006C
:100080000C9465000C9465000C94650011241FBE4F
:10009000CFEFD0E4DEBFCDBF11E0A0E0B1E0E2E3FE
:1000A000FDE000E00BBF02C007900D92A032B10747
:1000B000D9F721E0A0E2B1E001C01D92A036B2075D
:1000C000E1F70E949F030C9497060C940000CF93D5
:1000D000DF9300D01F92CDB7DEB789837B836A831D
:1000E00089818A3031F48A819B81BC018DE00E9434
:1000F000670080EC90E0FC018081882F90E08072A6
:100100009927892BB1F386EC90E02981FC012083AB
:1001100080E090E00F900F900F90DF91CF910895C5
:10012000CF93DF93CDB7DEB781E08093200100004D
:10013000DF91CF910895CF93DF93CDB7DEB781E8FC
:1001400090E02BE0FC01208388E890E02DE730E090
:10015000FC01318320838FE690E022E0FC012083C4
:1001600084E890E0FC011182108280910E01909150
:100170000F01A0911001B091110180932101909382
:100180002201A0932301B09324018FE590E02FE595
:1001900030E0F90120812068FC0120830000DF911C
:1001A000CF910895CF93DF93CDB7DEB781E890E08C
:1001B000FC0110820000DF91CF9108951F920F92F1
:1001C00000905F000F92112400905B000F922F931C
:1001D0003F934F935F936F937F938F939F93AF93CF
:1001E000BF93EF93FF93CF93DF93CDB7DEB78091AB
:1001F000210190912201A0912301B0912401019746
:10020000A109B1098093210190932201A0932301B8
:10021000B09324018091210190912201A0912301AA
:10022000B0912401892B8A2B8B2B91F40E94900092
:1002300080910E0190910F01A0911001B0911101D8
:100240008093210190932201A0932301B093240174
:100250000000DF91CF91FF91EF91BF91AF919F91FE
:100260008F917F916F915F914F913F912F910F905F
:1002700000925B000F9000925F000F901F90189506
:10028000CF93DF9300D000D0CDB7DEB769837A83F8
:100290008B839C8389819A81AB81BC8180930E0181
:1002A00090930F01A0931001B093110180910E0162
:1002B00090910F01A0911001B09111018093210143
:1002C00090932201A0932301B093240100000F908A
:1002D0000F900F900F90DF91CF910895CF93DF9300
:1002E000CDB7DEB72C970FB6F894DEBF0FBECDBFEB
:1002F0006D837E838F83988729873A874B875C87B6
:100300008D819E81AF81B88529853A854B855C8535
:10031000BC01CD010E94C605DC01CB0189839A8313
:10032000AB83BC8389819A81AB81BC81892B8A2B69
:100330008B2B29F489859A85AB85BC8511C089856D
:100340009A85AB85BC858D839E83AF83B887898171
:100350009A81AB81BC8189879A87AB87BC87D0CFD4
:10036000BC01CD012C960FB6F894DEBF0FBECDBFF9
:10037000DF91CF910895CF93DF9300D01F92CDB737
:10038000DEB79B838A8380E290E0FC0180818095C8
:100390008370898380E880935D018A819B818130AD
:1003A000910589F0823091051CF4892B39F025C024
:1003B00082309105C1F00397D9F01FC081E090E031
:1003C0009B838A831EC08981823029F482E090E079
:1003D0009B838A8315C08981813091F483E090E00A
:1003E0009B838A830DC081E090E09B838A8309C050
:1003F00081E090E09B838A8304C01B821A8201C043
:1004000000008A819B818230910521F18330910522
:1004100049F0892BB9F587EF80932B0181E0809318
:100420005D0130C080912B018E3F21F48EEF8093CF
:100430002B0128C080912B01809580932B01809106
:100440002B01869580932B0180912B0180958093C1
:100450002B0118C080912B018F3721F48FE78093F7
:100460002B010FC080912B01809580932B018091EF
:100470002B01880F80932B0180912B018095809315
:100480002B01000080912B0180935E018A819B816A
:100490000F900F900F90DF91CF910895CF93DF933E
:1004A00000D01F92CDB7DEB79B838A838A819B8160
:1004B000009719F0019731F00AC081E090E09B832A
:1004C0008A8307C081E090E09B838A8302C01B82FD
:1004D0001A828A819B81009719F0019781F028C0C8
:1004E00081E080932C010E9447062FEF30E0B90194
:1004F0000E94B205898389818093120119C080917D
:100500002C01803879F481E080932C010E94470609
:100510002FEF30E0B9010E94B20589838981809371
:10052000120106C080912C01880F80932C010000DD
:100530008091120180935F0180912C0180935B0177
:100540008A819B810F900F900F90DF91CF9108953A
:10055000CF93DF9300D01F92CDB7DEB79B838A8302
:1005600090915E0180915F01892B89838A819B81B3
:100570008130910551F082309105D1F0892BE9F459
:1005800081E090E09B838A831BC089818F3F59F073
:1005900090915D0180915B01981729F482E090E0D1
:1005A0009B838A830DC081E090E09B838A8308C08F
:1005B00083E090E09B838A8303C01B821A82000041
:1005C0008A819B818230910519F0039729F00AC036
:1005D00081E08093250106C08FEF80932601109261
:1005E000270100008A819B810F900F900F90DF916F
:1005F000CF910895CF93DF9300D000D000D0CDB736
:10060000DEB79E838D8380915F01898380915E0137
:100610008A8380915B018B8380915D018C838091C3
:100620002501882379F088E290E020912601FC01E1
:1006300020838BE290E020912701FC01208380E061
:1006400090E074C08D819E81009719F0019731F080
:100650000AC081E090E09E838D8308C081E090E035
:100660009E838D8303C01E821D8200008D819E812A
:10067000009719F0019731F057C010922A0110929B
:10068000290152C08091290190912A01181619065A
:100690001CF588E290E02091290130912A01AE01F9
:1006A0004D5F5F4F240F351FF9012081FC0120832E
:1006B0008BE290E02091290130912A01AE014F5F39
:1006C0005F4F240F351FF9012081FC012083109218
:1006D0002A011092290127C088E290E02091290187
:1006E00030912A01AE014D5F5F4F240F351FF90194
:1006F0002081FC0120838BE290E020912901309140
:100700002A01AE014F5F5F4F240F351FF901208191
:10071000FC0120838091290190912A0101969093F8
:100720002A018093290100008D819E8126960FB6B3
:10073000F894DEBF0FBECDBFDF91CF9108950F9328
:100740001F93CF93DF93CDB7DEB761970FB6F894C1
:10075000DEBF0FBECDBF81E290E0FC01108282E2DD
:1007600090E02FEFFC01208384E290E02FEFFC016A
:10077000208385E290E0FC01108287E290E02FEF79
:10078000FC01208388E290E0FC0110828AE290E084
:100790002FEFFC0120838BE290E0FC01108264E6E5
:1007A00070E080E090E00E9440010E949B0080E2A7
:1007B00090E0FC018081809580935C0180915C01D8
:1007C0008823A9F380915C01843061F484EF91E087
:1007D00090935A018093590185E290E021E0FC0159
:1007E00020831FC080915C01883061F48AEF90E023
:1007F00090935A018093590185E290E022E0FC0138
:1008000020830FC080915C01803159F484E690E030
:1008100090935A018093590185E290E024E0FC0115
:100820002083000088E0E7E1F1E0DE011A96019004
:100830000D928A95E1F784E090E098878F838FEF9F
:100840008987898580932D0184E690E0A0E0B0E05F
:1008500080932E0190932F01A0933001B09331012A
:1008600080912E0190912F01A0913001B091310122
:100870008093320190933301A0933401B0933501FA
:100880008BEB91E0909337018093360189858093BB
:1008900038018091590190915A01092E000CAA0B40
:1008A000BB0B8093390190933A01A0933B01B09325
:1008B0003C018091390190913A01A0913B01B091A6
:1008C0003C0180933D0190933E01A0933F01B09382
:1008D00040018EE492E0909342018093410189852A
:1008E0008093430181E090E0A0E0B0E08093440178
:1008F00090934501A0934601B09347018091440134
:1009000090914501A0914601B09147018093480123
:1009100090934901A0934A01B0934B018AEF92E072
:1009200090934D0180934C01898580934E0181E025
:1009300090E0A0E0B0E080934F0190935001A0932D
:100940005101B093520180914F0190915001A091BB
:100950005101B09152018093530190935401A0939F
:100960005501B093560188EA92E090935801809324
:1009700057018A859B85FC0181819281A381B48185
:100980008B839C83AD83BE8381E090E09A838983CF
:1009900025C089819A81880F991F9E012F5F3F4F43
:1009A000820F931F0996FC0180819181FC012181B6
:1009B0003281438154818B819C81AD81BE81BC0198
:1009C000CD010E946E01DC01CB018B839C83AD8342
:1009D000BE8389819A8101969A83898329813A818C
:1009E0008F81988528173907A0F28B819C81AD8172
:1009F000BE81BC01CD010E9440010E949B001A8271
:100A00001982A0C089819A81880F991F9E012F5F4A
:100A10003F4F820F931F0996FC0180819181FC0159
:100A2000258136814781508589819A81880F991F58
:100A3000BE016F5F7F4F860F971F0996FC01808173
:100A40009181FC0181819281A381B48128173907AA
:100A50004A075B0709F045C089819A81880F991F71
:100A60009E012F5F3F4F820F931F0996FC0100816B
:100A7000118189819A81880F991F9E012F5F3F4FB5
:100A8000820F931F0996FC0180819181FC012185D1
:100A9000328589819A81880F991FAE014F5F5F4F20
:100AA000840F951F0996FC0180819181FC01808152
:100AB000082E000C990BF9010995F80180838981B2
:100AC0009A81880F991F9E012F5F3F4F820F931FBE
:100AD0000996FC0180819181FC01158216821782A2
:100AE000108689819A81880F991F9E012F5F3F4F41
:100AF000820F931F0996FC016081718189819A811F
:100B0000880F991F9E012F5F3F4F820F931F0996F9
:100B1000FC0180819181FC012581368147815085CE
:100B20008B819C81AD81BE81820F931FA41FB51F55
:100B3000FB0185839683A783B08789819A8101967B
:100B40009A83898329813A818F819885281739076B
:100B500008F458CF0000809120018823E1F310921F
:100B600020014DCF97FB072E16F4009407D077FD98
:100B700009D00E94E80507FC05D03EF490958195C8
:100B80009F4F0895709561957F4F0895A1E21A2EA9
:100B9000AA1BBB1BFD010DC0AA1FBB1FEE1FFF1F21
:100BA000A217B307E407F50720F0A21BB30BE40B71
:100BB000F50B661F771F881F991F1A9469F76095B8
:100BC0007095809590959B01AC01BD01CF01089572
:100BD000AA1BBB1B51E107C0AA1FBB1FA617B70763
:100BE00010F0A61BB70B881F991F5A95A9F780957F
:100BF0009095BC01CD0108958F929F92AF92BF92C4
:100C0000CF92DF92EF92FF92CF93DF93EC01688156
:100C100079818A819B81611571058105910521F496
:100C200064E279ED8BE597E02DE133EF41E050E0B0
:100C30000E94560649015A019B01AC01A7EAB1E4A2
:100C40000E9475066B017C01ACEEB4EFA501940126
:100C50000E948306DC01CB018C0D9D1DAE1DBF1DC6
:100C6000B7FF03C00197A109B04888839983AA837D
:100C7000BB839F77DF91CF91FF90EF90DF90CF9074
:100C8000BF90AF909F908F9008950C94FC0583E1E6
:100C900091E00C94FC05A0E0B0E0809313019093E8
:100CA0001401A0931501B09316010895052E97FB2A
:100CB0001EF400940E946D0657FD07D00E94C605E1
:100CC00007FC03D04EF40C946D065095409530957A
:100CD00021953F4F4F4F5F4F0895909580957095A8
:100CE00061957F4F8F4F9F4F08950E948806A59F63
:100CF000900DB49F900DA49F800D911D1124089517
:100D0000B7FF0C9475060E947506821B930B08951D
:100D1000A29FB001B39FC001A39F700D811D11243C
:100D2000911DB29F700D811D1124911D0895F8949D
:020D3000FFCFF3
:100D32000000000200000000670000000000010047
:100D42000000F7010000002D01380143014E0100AF
:00000001FF
